:1000000012C021C020C01FC01EC01DC034C21BC0F2
:100010001AC019C018C017C016C015C014C013C02C
:1000200012C011C010C011241FBECFE5D4E0DEBF46
:10003000CDBF10E0A0E6B0E001C01D92A838B10726
:10004000E1F7D1D070C2DCCFDF93CF930F92CDB761
:10005000DEB78983EBE2F0E08081882F90E0807248
:1000600090700097B9F3ECE2F0E0898180830F9003
:10007000CF91DF9108950F931F93DF93CF9300D01B
:1000800000D0CDB7DEB78B836C8380E090E09A839D
:1000900089838B81882F90E09C01220F331F220FD0
:1000A000331F89819A81820F931F9A8389832981C3
:1000B0003A8182E690E0B90144E050E024D22091F8
:1000C0006200309163008091640090916500820F1E
:1000D000931F8C01169507958C81E82FFF27E7FD6C
:1000E000F0952091640030916500809162009091BC
:1000F0006300A901481B590BCA0124EB30E0B90188
:10010000EED1CB019C01E29FC001E39F900DF29FD5
:10011000900D1124800F911F0F900F900F900F9052
:10012000CF91DF911F910F910895DF93CF93CDB7BA
:10013000DEB7A9E5B0E0E9E5F0E080818F7E8C9341
:1001400020916000822F90E0880F991F880F991FDF
:10015000FC01EA59FF4F8081982F909580916100B2
:10016000892380936100822F8F5F8093600080914C
:100170006000883010F01092600080916000882F3D
:1001800090E0880F991F880F991FFC01EA59FF4FD3
:10019000908180916100892B80936100AAE4B0E096
:1001A00080916000882F90E0880F991F880F991F19
:1001B000FC01E959FF4F8081918111969C938E93A8
:1001C000ECE4F0E011821082E8E3F0E0809161005D
:1001D0008083A9E5B0E0E9E5F0E0808180618C935F
:1001E000CF91DF9108950F931F93DF93CF93CDB7F6
:1001F000DEB728970FB6F894DEBF0FBECDBFEBE297
:10020000F0E01082E0E4F0E086E88083EAE2F0E0EB
:1002100088E18083E0E4F0E01082E9E2F0E083E34B
:1002200080838EE311DFEAE4F0E080ED97E09183D4
:100230008083EFE4F0E01082ECE4F0E011821082C1
:10024000AEE4B0E0EEE4F0E0808188608C93AEE450
:10025000B0E0EEE4F0E0808182608C931092600068
:10026000E7E3F0E08FEF8083E4E3F0E08FEF80835B
:100270001092600057C080E090E09A83898380915B
:100280006000882F90E09C01220F331F220F331F44
:1002900089819A81820F931F9A83898329813A8168
:1002A00082E690E0B90144E050E02DD180916000F9
:1002B000482F50E080916000282F30E081E090E0EE
:1002C00002C0880F991F2A95E2F7282FCA01880FCC
:1002D000991F880F991FFC01EA59FF4F20838091D5
:1002E0006000882F90E02091620030916300880FB9
:1002F000991F880F991FFC01E959FF4F3183208313
:1003000080916000882F90E0880F991F880F991FB7
:10031000FC01E759FF4F86EA8083809160008F5F80
:100320008093600080916000883008F4A4CF109220
:100330006000FBDE7894809186008E7F809386003B
:10034000EBE2F0E0808188236CF4ECE2F0E0808165
:10035000809387008091870077DE8091860081609E
:1003600080938600809186008170882349F3809174
:1003700087001886813310F081E08887809187009C
:100380001F82893310F491E09F8388859F818923A0
:10039000882321F08091870081538C83809187008E
:1003A0001E828B3211F481E08E83809187001D8242
:1003B0008D3211F491E09D838E819D81892B88235C
:1003C00009F453C0809187008B32A1F48C81882F6F
:1003D00090E0880F991F880F991FFC01E759FF4F84
:1003E00080818B838B81815F8B838B818B3514F034
:1003F0008AE58B83809187008D32A1F48C81882FD0
:1004000090E0880F991F880F991FFC01E759FF4F53
:1004100080818B838B818F508B838B81863A14F400
:1004200086EA8B838C81082F10E08C816B8123DE20
:100430009C01C801880F991F880F991FFC01E95979
:10044000FF4F318320838C81882F90E0880F991F84
:10045000880F991FFC01E759FF4F8B8180838DE046
:10046000F3DD8AE0F1DD8EE3EFDD809186008E7FA3
:100470008093860065CF1F920F920FB60F921124C2
:100480002F933F934F935F936F937F938F939F939C
:10049000AF93BF93EF93FF93DF93CF93CDB7DEB7C7
:1004A00044DEE5E3F0E08091600081708083E8E362
:1004B000F0E0809161008083CF91DF91FF91EF9117
:1004C000BF91AF919F918F917F916F915F914F916C
:1004D0003F912F910F900FBE0F901F901895AA1B60
:1004E000BB1B51E107C0AA1FBB1FA617B70710F01F
:1004F000A61BB70B881F991F5A95A9F78095909551
:10050000BC01CD010895DC01CB01FC01E199FECFD6
:1005100006C0FFBBEEBBE09A31960DB20D92415082
:0A0520005040B8F70895F894FFCF9B
:00000001FF
