:1000000012C021C020C01FC01EC01DC01CC01BC00C
:10001000AFC019C018C017C016C015C014C013C097
:1000200012C011C010C011241FBECFE5D4E0DEBF46
:10003000CDBF10E0A0E6B0E001C01D92AB36B10725
:10004000E1F719D058C1DCCFDF93CF930F92CDB732
:10005000DEB78983EBE2F0E08081882F90E0807248
:1000600090700097B9F3ECE2F0E0898180830F9003
:10007000CF91DF910895DF93CF93CDB7DEB7EBE259
:10008000F0E01082E0E4F0E086E88083EAE2F0E06D
:1000900088E18083E0E4F0E01082E9E2F0E083E3CD
:1000A00080838EE3D1DFEEE4F0E081E08083A9E598
:1000B000B0E0E9E5F0E0808184608C93ECE4F0E06E
:1000C00011821082E7E3F0E08FEF8083E4E3F0E059
:1000D0008FEF808381E08093630089E080936400E8
:1000E00089E08093650082E0809366008CE08093D5
:1000F00067008CE0809368007894809169008E7F1F
:1001000080936900EBE2F0E0808188236CF4ECE2FC
:10011000F0E0808180936A0080916A0095DF809191
:1001200069008160809369008091690081708823F3
:1001300049F380916A008B3229F480916400865FD4
:100140008093640080916A008D3229F4809164006C
:100150008A508093640080916A0076DF8DE074DFBE
:100160008AE072DF809169008E7F80936900CACF38
:100170001F920F920FB60F9211242F933F934F931C
:100180005F938F939F93EF93FF93DF93CF930F92A0
:10019000CDB7DEB7E5E3F0E08091600090916100BB
:1001A00081708083ECE4F0E0118210828091600025
:1001B000909161000196909361008093600010928D
:1001C0006200198277C08981282F30E0C901880F29
:1001D000991F820F931FFC01EB59FF4F8081482F1D
:1001E000552747FD50958981282F30E0C901880F98
:1001F000991F820F931FFC01EC59FF4F8081882FBC
:1002000090E0909581959F4F84179507BCF5898163
:10021000282F30E0C901880F991F820F931FFC011E
:10022000EB59FF4F8081482F4150C901880F991F1A
:10023000820F931FFC01EB59FF4F40838981282FC8
:1002400030E0C901880F991F820F931FFC01EB5901
:10025000FF4F808188235CF18981282F30E0C9011C
:10026000880F991F820F931FFC01ED59FF4F90815A
:1002700080916200892B8093620019C08981482F88
:1002800050E08981282F30E0C901880F991F820F23
:10029000931FFC01EC59FF4F8081282FCA01880F62
:1002A000991F840F951FFC01EB59FF4F2083898113
:1002B0008F5F89838981823008F485CFE8E3F0E09D
:1002C000809162008083E5E3F0E08091600090918E
:1002D0006100817080830F90CF91DF91FF91EF914A
:1002E0009F918F915F914F913F912F910F900FBEF2
:0A02F0000F901F901895F894FFCFAF
:00000001FF
